:020000040000FA
:020000002F28A7
:040002000034003492
:08000800A100030EA0000B1182
:10001000E7308100A40A280C3F3924020318081095
:10002000031C0814A50A290C3F392502031888105F
:10003000031C8814A60A2A0C3F392602031808114B
:10004000031C0815A70A2B0C3F3927020318881137
:0E005000031C8815200E8300A10E210E09004E
:02005E008E20F2
:10006000A520BC20C120AB20D520A401A501A6015C
:10007000A701A801A901AA01AB019F121F129F119C
:100080001F11ED209F149F1843281E08A800A80CDC
:100090000C130C1E4928280899008C1E4D281A089C
:1000A000A8009F121F129F111F15ED209F149F186B
:1000B00057281E08A900A90C0C130C1E5D2829083E
:1000C00099008C1E61281A08A9009F121F129F1503
:1000D0001F11ED209F149F186B281E08AA00AA0C60
:1000E0000C130C1E71282A0899008C1E75281A08FA
:1000F000AA009F121F129F151F15ED209F149F1815
:100100007F281E08AB00AB0C0C130C1E85282B0897
:1001100099008C1E89281A08AB003D28831203130E
:100120008501860187018801831603130514851450
:1001300005158515860187018801831603170814A4
:1001400088140815881589010800831603130F17F2
:100150008F160F16080083160313811201128111E6
:10016000011181100114831203138B1683120313E0
:100170008101E73081000800831203138B170B13F2
:100180000800831203139F171F139F121F129F1142
:100190001F11831603139F139F121F128312031341
:1001A0000C13831203131F14080083160313181271
:1001B0001815831603178715831603131930990032
:1001C0009A01831203139817181318168316031332
:1001D000981683120313880108001130A3006430BD
:0C01E000A200A20BF128A30BEF280800DE
:02400E00D420BC
:02401000FF3F70
:00000001FF
